:020000040800F2
:10000000900600202902000877070008070500086D
:100010007507000857030008850F0008000000005E
:10002000000000000000000000000000F9080008C7
:100030005903000800000000E9070008FB08000859
:10004000430200084302000843020008430200087C
:10005000430200084302000843020008430200086C
:10006000430200084302000843020008430200085C
:10007000430200084302000843020008430200084C
:10008000430200084302000843020008430200083C
:10009000430200084302000843020008430200082C
:1000A000430200084302000843020008430200081C
:1000B0004302000843020008010A00084302000846
:1000C00043020008430200084302000843020008FC
:1000D00043020008430200084302000843020008EC
:1000E00043020008430200084302000843020008DC
:1000F00043020008430200084302000843020008CC
:1001000043020008430200084302000843020008BB
:1001100043020008430200084302000843020008AB
:10012000430200084302000843020008430200089B
:10013000430200084302000843020008430200088B
:10014000430200084302000843020008430200087B
:10015000430200084302000843020008430200086B
:10016000430200084302000843020008430200085B
:10017000430200084302000843020008430200084B
:10018000430200084302000800F002F800F03CF8C7
:100190000AA090E8000C82448344AAF10107DA45E2
:1001A00001D100F031F8AFF2090EBAE80F0013F0F8
:1001B000010F18BFFB1A43F0010318472C1600006B
:1001C0004C160000103A24BF78C878C1FAD85207FC
:1001D00024BF30C830C144BF04680C6070470000C1
:1001E0000023002400250026103A28BF78C1FBD840
:1001F000520728BF30C148BF0B6070471FB500F0E1
:10020000EBFE1FBD10B510BD00F06BF81146FFF7F7
:10021000F5FF00F0B9FE00F089F803B4FFF7F2FF34
:1002200003BC00F091F800000948804709480047E6
:10023000FEE7FEE7FEE7FEE7FEE7FEE7FEE7FEE796
:10024000FEE7FEE704480549054A064B70470000F3
:10025000FD08000889010008900000209006002099
:100260009002002090020020DFED190AB5EEC00ACE
:1002700060EE200ABDEEE01A11EE100AF1EE10FA5F
:1002800038BF401E00EE100A1349F7EE001AB8EE10
:10029000C00A30EEC00ADFED0F0A60EE200ABCEEA5
:1002A000E00A10EE100AC0F3080000EE100A01EB9D
:1002B0008000B8EE400A90ED011A70EEC00A90ED91
:1002C000000A71EEE01A21EE800A00EE810A704702
:1002D00083F9223E00000044E40F00087047704795
:1002E0007047754600F02CF8AE4605006946534647
:1002F00020F00700854618B020B5FFF7A3FFBDE842
:1003000020404FF000064FF000074FF000084FF07C
:10031000000B21F00701AC46ACE8C009ACE8C0090D
:10032000ACE8C009ACE8C0098D46704710B504467A
:10033000AFF300802046BDE81040FFF76EBF00001D
:10034000004870472C00002001491820ABBEFEE792
:10035000260002007047FEE7704700002DE9F047D5
:1003600004460D4688B0284304BF08B0BDE8F087B6
:100370000020354F8046D4F5FA714FF47A794FF466
:10038000FA5A4FF0E026A84132D204A800F05EFAF3
:100390000598B84230690AD240F0040030610598EF
:1003A0004FF4FA71B0FBF9F04843706109E020F0B6
:1003B0000400306105984FF4FA71B0FBFAF048433D
:1003C0007061C6F81880306940F001003061306912
:1003D00010F4803FFBD0306920F001003061B4F5AB
:1003E000FA7445F1FF350020D4F5FA71A841CCD359
:1003F000684600F02BFA0198B842306909D240F003
:10040000040030610198B0FBF9F0A0FB04017061B9
:1004100008E020F0040030610198B0FBFAF0A0FB86
:1004200004017061C6F81880306940F00100306145
:10043000306910F4803FFBD0306920F0010030615A
:1004400008B0BDE8F087000000127A002DE9F00145
:10045000002201255FF00306D1F800C005FA02F37F
:100460000CEA030C9C4533D107684FEA420C06FAAC
:100470000CF4A74307600F79D0F8008007FA0CF757
:1004800047EA080707600F79012F18BF022F14D120
:100490008768A74387604F79D0F8088007FA0CF780
:1004A00047EA08078760476827EA03034360436811
:1004B0008F799740BFB23B434360C368A343C36097
:1004C000CB7903FA0CF3D0F80CC043EA0C03C360F9
:1004D000521C102AC0D3BDE8F00170474B07DB0E59
:1004E0009A40C90800EB8100016A4FF00F0C0CFA2A
:1004F00003F399430162016A11430162704741832A
:10050000704701837047FEE79FED871A8748B5EE75
:10051000C00AF1EE10FA80ED031A80ED041A34BF20
:1005200080ED011A80ED010AF5EEC00AF1EE10FA35
:1005300034BF80ED021AC0ED020A0178002918BF0D
:1005400070472DE9F0478CB0012505700024009418
:1005500029460420019400F049F98DF8045003263F
:100560008DF80560DFF8C89102278DF806400097E6
:100570008DF8075069464846FFF768FF0221484654
:10058000FFF7BDFF0894099405940694079400941E
:1005900001940294039401210420049400F026F9AC
:1005A0000121022000F02EF9022208214846FFF71F
:1005B00095FF8DF8247028028DF8256008908DF83D
:1005C00026408DF8275008A94846FFF73FFFDFF87F
:1005D00064A1504600F0E8FA5320ADF81400ADF8DD
:1005E00016400696ADF81C4005A9504600F08AFC5E
:1005F0004FF06008ADF80080ADF802500297ADF8FA
:100600000C406946504600F02CFC0821504600F092
:100610006EFC0121504600F0AFFA0121504600F077
:10062000BAFA0A94069407940894099400940194E1
:1006300002940394049401210220059400F0D6F85A
:100640000121022000F0D2F80121042000F0DAF8A4
:10065000DFF8E4A0022206215046FFF73FFF022206
:1006600007215046FFF73AFF8DF81C7040208DF8A7
:100670001D6006908DF81E408DF81F5006A950464B
:10068000FFF7E4FE8020069006A95046FFF7DEFE45
:100690002A4E304600F088FA4AF20F40ADF820406A
:1006A0000990ADF82240ADF8284008A9304600F086
:1006B00029FCADF80080ADF802500294ADF80C4072
:1006C0006946304600F044FB6946304600F07AFB4C
:1006D0000821304600F070FB0821304600F0B7FBDF
:1006E0000121304600F048FA0121304600F04DFA71
:1006F00001221146304600F023FB0121304600F074
:100700004AFA1E208DF814008DF815408DF8164019
:100710008DF8175005A800F02FF80CB04846BDE83A
:10072000F0470221FFF7EDBE0000000000000020AE
:10073000000802400004004000040240000800409D
:100740009FED0A1AB5EEC00A0948F1EE10FA34BF5F
:1007500080ED031A80ED030AF5EEC00AF1EE10FAFF
:1007600034BF80ED041AC0ED040A70470000000099
:1007700000000020FEE7704710B4C27801780F2413
:100780004FF0010C0AB3174A126801F1E02102F49C
:10079000E062C2F5E062C2F30722C2F10403D44072
:1007A00042789A40837823401A43120181F800244A
:1007B000007800F01F010CFA01F14009800000F1FF
:1007C000E020C0F8001110BC704701F01F000CFAC7
:1007D00000F04909890001F1E021C1F8800110BC55
:1007E000704700000CED00E070470000044A00294B
:1007F000116814BF084321EA000010607047000030
:1008000030380240044A0029116814BF084321EA25
:10081000000010607047000040380240044A002980
:10082000116814BF084321EA0000106070470000FF
:1008300020380240044A0029116814BF084321EA05
:10084000000010607047000024380240254A30B490
:100850001168254B11F00C0106D0244C042908BF67
:10086000046002D008291ED0036011680F2303EA38
:1008700011111F4B595CD0F800C02CFA01F14160F6
:10088000D2F800C0072404EA9C2C13F80CC021FA0B
:100890000CFCC0F808C0126804EA52329A5CD140DD
:1008A000C16030BC70471349D1F800C0CCF380550B
:1008B000D1F800C0002D0CF03F0C14BFB4FBFCF3CA
:1008C000B3FBFCF3D1F800C00968CCF3881C03FB30
:1008D0000CF3C1F30141491C4900B3FBF1F1016084
:1008E000C3E70000083802400024F40040787D018E
:1008F0001C0000200438024070477047374882B01F
:10090000016841F4700101603548016841F001015E
:100910000160344900230B60026822F4102222F0A7
:100920008072026000F1040C2F4ACCF800200268AB
:1009300022F4802202600A1D136001930093026872
:1009400042F480320260026802F400320092019A9E
:10095000521C0192009A1AB9019AB2F5A04FF2D135
:10096000026812F4003F08BF009331D001220092C8
:100970001E4A136843F0805313601D4A136843F402
:10098000404313600A680A600A6842F400420A6041
:100990000A6842F4A0520A60164ACCF800200268A5
:1009A00042F080720260026812F0007FFBD0124AAF
:1009B00040F205701060086820F0030008600868C5
:1009C00040F002000860086800F00C000828FAD126
:1009D0000A494FF00060086002B0704788ED00E0FF
:1009E00000380240083802401030002440380240ED
:1009F0000070004019544007003C024008ED00E040
:100A000070B52DED068B9FED528A524D0121F0EE0F
:100A1000488A2846B0EE689AF0EE689A00F085F9A8
:100A2000002804BFBDEC068B70BD0121284600F0F4
:100A3000AFF8494C94ED010AB5EEC00AF1EE10FA98
:100A4000C2BF94ED020AB5EEC00AF1EE10FA22DD43
:100A500094ED060AD4ED010A9FED401A00EE810ADA
:100A600084ED060AFFF700FCD4ED020A606960EE2F
:100A7000208A401C606194ED010ADFED390A80EEA6
:100A8000801ABCEEC10A10EE101A814203D8002071
:100A9000606184ED068A94ED030AB5EEC00AF1EEBA
:100AA00010FAC4BF94ED030A30EE289A94ED040ABC
:100AB000B5EEC00AF1EE10FAC4BF94ED040A70EE70
:100AC000289A9FED28AA284CDFED288A29EE0A0AE9
:100AD00010EE100AA042C8BFB0EE680A04DCB5EE02
:100AE000C00AF1EE10FA2DD39FED219ADFED21AA75
:100AF00020EE090A20EE2A0ABCEEC00A10EE100A07
:100B000081B2284600F0F9F929EE8A0A10EE101A8F
:100B1000A142C8BFB0EE680A04DCB5EEC00AF1EE2F
:100B200010FA12D320EE090A20EE2A0ABDEC068B39
:100B3000BCEEC00A10EE100A81B22846BDE8704033
:100B400000F0DDB9B0EE480ACEE7B0EE480AE9E7BA
:100B50000000000000080040000000202FE34D3B93
:100B60000000FA44000020420000C8420000C842D1
:100B7000001024470AD7233C0029018814BF41F004
:100B8000800121F0800101807047C94301827047D4
:100B9000C943018270470029018814BF41F0010157
:100BA00021F001010180704710B5A0F18041B1F53D
:100BB000803132D0B0F1804F43D011F57C4136D036
:100BC000B1F5806147D0B1F580614ED0B1F580615B
:100BD00055D0B1F580615CD0B1F5704163D0B1F50D
:100BE00070516AD0B1F5806172D0B1F580617AD070
:100BF00011F598317DD0B1F580617BD0B1F5806180
:100C000018BF10BD01210802FFF708FEBDE8104023
:100C100000214FF48070FFF701BE01210846FFF765
:100C200009FE0021BDE810400120FFF703BE0121AD
:100C30000220FFF7F3FD0021BDE810400220FFF77E
:100C4000EDBD01210846FFF7E9FD0021BDE8104098
:100C50000120FFF7E3BD01210420FFF7DFFD0021A4
:100C6000BDE810400420FFF7D9BD01210820FFF79F
:100C7000D5FD0021BDE810400820FFF7CFBD0121C0
:100C80001020FFF7CBFD0021BDE810401020FFF73A
:100C9000C5BD01212020FFF7C1FD0021BDE81040A6
:100CA0002020FFF7BBBD01210220FFF7C3FD00217B
:100CB000BDE810400220FFF7BDBD01210804FFF789
:100CC000B9FDBDE8104000214FF48030FFF7B2BD00
:100CD00001214804FFF7AEFDBDE8104000214FF4AC
:100CE0000030FFF7A7BD01218804FFF7A3FD002115
:100CF00001E006E00FE0BDE810404FF48020FFF770
:100D000099BD01214020FFF789FD0021BDE8104079
:100D10004020FFF783BD01218020FFF77FFD0021E8
:100D2000BDE810408020FFF779BD038A002280894A
:100D30000B4200EA01001CBF002801221046704748
:100D4000002A828914BF114322EA01018181704780
:100D500010B4028C22F001020284038C8288B0F865
:100D600018C00C882CF0730C44EA0C0C8C8923F00E
:100D7000020323434C882343A0F18044B4F580341C
:100D80001CBFA0F18044B4F582340DD1CC8923F08E
:100D9000080323438C8823F0040323430C8A22F4A2
:100DA000407222434C8A22438280A0F818C089688E
:100DB0004163038410BC7047028B22F00802114388
:100DC0000183704730B4028C22F010020284038C3D
:100DD000B0F804C0028B0D8822F4E6444FF6FF728F
:100DE00002EA05252C438D8923F0200302EA05152C
:100DF0002B434D8802EA05152B43A0F18045B5F53C
:100E000080351CBFA0F18045B5F5823517D1CD895D
:100E100023F0800302EA05152B438D8823F040035D
:100E200002EA05152B430D8A2CF4406C02EA850575
:100E300045EA0C0C4D8A02EA850242EA0C0CA0F845
:100E400004C0048389688163038430BC7047028BCB
:100E50004FF6FF7322F4006203EA0121114301837C
:100E6000704730B4028C22F480720284028C838832
:100E7000B0F81CC00C882CF0730C44EA0C0422F46B
:100E8000007C8D894FF6FF7202EA052545EA0C0CBD
:100E90004D8802EA052545EA0C0CA0F18045B5F520
:100EA00080351CBFA0F18045B5F5823517D1CD89BD
:100EB0002CF4006C02EA052545EA0C0C8D882CF414
:100EC000806C02EA052545EA0C0C0D8A23F4405398
:100ED00002EA05152B434D8A02EA0512134383806B
:100EE00084838968C163A0F820C030BC7047828BBE
:100EF00022F0080211438183704741637047816388
:100F00007047000010B402881C4BDFF874C0984290
:100F100018BF604511D0B0F1804F1CBFA0F18044D4
:100F2000B4F5806409D0A0F18044B4F500641CBF1E
:100F3000A0F18044B4F5406403D14C8822F07002E3
:100F40002243A0F18044B4F580541CBFA0F180443A
:100F5000B4F5A05403D00C8922F4407222430280DD
:100F60004A68C2620A880285984212BF6045897A3F
:100F700001860121818210BC704700000000014001
:100F800000040140FEE700002DED028BDFED0F0AAB
:100F90009FED0F0AFFF7B8FA9FED0E8A4FF4FA7033
:100FA0000021FFF7DBF9F0EE480AB6EE000AFFF782
:100FB000C7FB4FF4FA700021FFF7D0F9F6EE000AF4
:100FC000B0EE480AFFF7BCFBE8E700000AD7A33DF4
:100FD0000000C842000000004FF00000E1EE100ADF
:100FE0007047000000000000920E493CB10AC93C65
:100FF0002BC3163D2EFB483D752B7B3D04A9963D2A
:1010000080B6AF3D36BDC83D2FBCE13D73B2FA3D61
:1010100087CF093E8340163EB5AB223EA2102F3E3D
:10102000CF6E3B3EC2C5473E0115543E135C603E49
:101030007F9A6C3ECCCF783EC07D823E938E883EB8
:10104000229A8E3E32A0943E86A09A3EE59AA03E19
:10105000128FA63ED47CAC3EEF63B23E2A44B83E2B
:10106000491DBE3E15EFC33E53B9C93ECA7BCF3EB4
:101070004136D53E80E8DA3E4F92E03E7533E63E9B
:10108000BBCBEB3EEA5AF13ECBE0F63E275DFC3EA1
:10109000E4E7003F3D9C033F824B063F9BF5083F42
:1010A0006B9A0B3FDA390E3FCDD3103F2A68133FBE
:1010B000D9F6153FC07F183FC6021B3FD17F1D3FA9
:1010C000CBF61F3F9967223F25D2243F5636273F54
:1010D0001594293F4AEB2B3FDE3B2E3FBB85303F2B
:1010E000C9C8323FF304353F233A373F4268393F9E
:1010F0003B8F3B3FF9AE3D3F67C73F3F70D8413F15
:1011000001E2433F03E4453F65DE473F12D1493FDB
:10111000F8BB4B3F029F4D3F207A4F3F3D4D513F23
:101120004918533F31DB543FE595563F5348583FEC
:101130006AF2593F1A945B3F532D5D3F05BE5E3FF7
:101140002146603F97C5613F5A3C633F59AA643FBF
:10115000880F663FD86B673F3CBF683FA7096A3F6F
:101160000C4B6B3F5E836C3F93B26D3F9ED86E3FDE
:1011700073F56F3F0809713F5213723F4714733F75
:10118000DD0B743F0BFA743FC6DE753F07BA763F3E
:10119000C58B773FF853783F9812793F9DC7793FC9
:1011A00002737A3FBE147B3FCDAC7B3F283B7C3F34
:1011B000C9BF7C3FAC3A7D3FCCAB7D3F23137E3F24
:1011C000B0707E3F6DC47E3F580E7F3F6D4E7F3FB7
:1011D000AB847F3F0FB17F3F97D37F3F43EC7F3F8F
:1011E00011FB7F3F0000803F11FB7F3F43EC7F3FBF
:1011F00097D37F3F0FB17F3FAB847F3F6D4E7F3FE3
:10120000580E7F3F6DC47E3FB0707E3F23137E3FFC
:10121000CCAB7D3FAC3A7D3FC9BF7C3F283B7C3F98
:10122000CDAC7B3FBE147B3F02737A3F9DC7793FB5
:101230009812793FF853783FC58B773F07BA763FCE
:10124000C6DE753F0BFA743FDD0B743F4714733FE6
:101250005213723F0809713F73F56F3F9ED86E3F7E
:1012600093B26D3F5E836C3F0C4B6B3FA7096A3FA7
:101270003CBF683FD86B673F880F663F59AA643F01
:101280005A3C633F97C5613F2146603F05BE5E3FC4
:10129000532D5D3F1A945B3F6AF2593F5348583FC4
:1012A000E595563F31DB543F4918533F3D4D513F83
:1012B000207A4F3F029F4D3FF8BB4B3F12D1493F31
:1012C00065DE473F03E4453F01E2433F70D8413FBD
:1012D00067C73F3FF9AE3D3F3B8F3B3F4268393FD9
:1012E000233A373FF304353FC9C8323FBB85303F0F
:1012F000DE3B2E3F4AEB2B3F1594293F5636273FC6
:1013000025D2243F9967223FCBF61F3FD17F1D3F57
:10131000C6021B3FC07F183FD9F6153F2A68133F0E
:10132000CDD3103FDA390E3F6B9A0B3F9BF5083F48
:10133000824B063F3D9C033FE4E7003F275DFC3EB8
:10134000CBE0F63EEA5AF13EBBCBEB3E7533E63ED0
:101350004F92E03E80E8DA3E4136D53ECA7BCF3E32
:1013600053B9C93E15EFC33E491DBE3E2A44B83E9F
:10137000EF63B23ED47CAC3E128FA63EE59AA03E0F
:1013800086A09A3E32A0943E229A8E3E938E883E4C
:10139000C07D823ECCCF783E7F9A6C3E135C603E2F
:1013A0000115543EC2C5473ECF6E3B3EA2102F3EB4
:1013B000B5AB223E8340163E87CF093E73B2FA3D5D
:1013C0002FBCE13D36BDC83D80B6AF3D04A9963D7A
:1013D000752B7B3D2EFB483D2BC3163DB10AC93C06
:1013E000920E493C00000000920E49BCB10AC9BCF3
:1013F0002BC316BD2EFB48BD752B7BBD04A996BD26
:1014000080B6AFBD36BDC8BD2FBCE1BD73B2FABD5D
:1014100087CF09BE834016BEB5AB22BEA2102FBE39
:10142000CF6E3BBEC2C547BE011554BE135C60BE45
:101430007F9A6CBECCCF78BEC07D82BE938E88BEB4
:10144000229A8EBE32A094BE86A09ABEE59AA0BE15
:10145000128FA6BED47CACBEEF63B2BE2A44B8BE27
:10146000491DBEBE15EFC3BE53B9C9BECA7BCFBEB0
:101470004136D5BE80E8DABE4F92E0BE7533E6BE97
:10148000BBCBEBBEEA5AF1BECBE0F6BE275DFCBE9D
:10149000E4E700BF3D9C03BF824B06BF9BF508BF3E
:1014A0006B9A0BBFDA390EBFCDD310BF2A6813BFBA
:1014B000D9F615BFC07F18BFC6021BBFD17F1DBFA5
:1014C000CBF61FBF996722BF25D224BF563627BF50
:1014D000159429BF4AEB2BBFDE3B2EBFBB8530BF27
:1014E000C9C832BFF30435BF233A37BF426839BF9A
:1014F0003B8F3BBFF9AE3DBF67C73FBF70D841BF11
:1015000001E243BF03E445BF65DE47BF12D149BFD7
:10151000F8BB4BBF029F4DBF207A4FBF3D4D51BF1F
:10152000491853BF31DB54BFE59556BF534858BFE8
:101530006AF259BF1A945BBF532D5DBF05BE5EBFF3
:10154000214660BF97C561BF5A3C63BF59AA64BFBB
:10155000880F66BFD86B67BF3CBF68BFA7096ABF6B
:101560000C4B6BBF5E836CBF93B26DBF9ED86EBFDA
:1015700073F56FBF080971BF521372BF471473BF71
:10158000DD0B74BF0BFA74BFC6DE75BF07BA76BF3A
:10159000C58B77BFF85378BF981279BF9DC779BFC5
:1015A00002737ABFBE147BBFCDAC7BBF283B7CBF30
:1015B000C9BF7CBFAC3A7DBFCCAB7DBF23137EBF20
:1015C000B0707EBF6DC47EBF580E7FBF6D4E7FBFB3
:1015D000AB847FBF0FB17FBF97D37FBF43EC7FBF8B
:1015E00011FB7FBF000080BF11FB7FBF43EC7FBFBB
:1015F00097D37FBF0FB17FBFAB847FBF6D4E7FBFDF
:10160000580E7FBF6DC47EBFB0707EBF23137EBFF8
:10161000CCAB7DBFAC3A7DBFC9BF7CBF283B7CBF94
:10162000CDAC7BBFBE147BBF02737ABF9DC779BFB1
:10163000981279BFF85378BFC58B77BF07BA76BFCA
:10164000C6DE75BF0BFA74BFDD0B74BF471473BFE2
:10165000521372BF080971BF73F56FBF9ED86EBF7A
:1016600093B26DBF5E836CBF0C4B6BBFA7096ABFA3
:101670003CBF68BFD86B67BF880F66BF59AA64BFFD
:101680005A3C63BF97C561BF214660BF05BE5EBFC0
:10169000532D5DBF1A945BBF6AF259BF534858BFC0
:1016A000E59556BF31DB54BF491853BF3D4D51BF7F
:1016B000207A4FBF029F4DBFF8BB4BBF12D149BF2D
:1016C00065DE47BF03E445BF01E243BF70D841BFB9
:1016D00067C73FBFF9AE3DBF3B8F3BBF426839BFD5
:1016E000233A37BFF30435BFC9C832BFBB8530BF0B
:1016F000DE3B2EBF4AEB2BBF159429BF563627BFC2
:1017000025D224BF996722BFCBF61FBFD17F1DBF53
:10171000C6021BBFC07F18BFD9F615BF2A6813BF0A
:10172000CDD310BFDA390EBF6B9A0BBF9BF508BF44
:10173000824B06BF3D9C03BFE4E700BF275DFCBEB4
:10174000CBE0F6BEEA5AF1BEBBCBEBBE7533E6BECC
:101750004F92E0BE80E8DABE4136D5BECA7BCFBE2E
:1017600053B9C9BE15EFC3BE491DBEBE2A44B8BE9B
:10177000EF63B2BED47CACBE128FA6BEE59AA0BE0B
:1017800086A09ABE32A094BE229A8EBE938E88BE48
:10179000C07D82BECCCF78BE7F9A6CBE135C60BE2B
:1017A000011554BEC2C547BECF6E3BBEA2102FBEB0
:1017B000B5AB22BE834016BE87CF09BE73B2FABD59
:1017C0002FBCE1BD36BDC8BD80B6AFBD04A996BD76
:1017D000752B7BBD2EFB48BD2BC316BDB10AC9BC02
:1017E000920E49BC0000008008180008000000208C
:1017F0002C000000C4010008341800082C00002050
:1018000064060000E0010008000000000000000085
:1018100000000000000000000000000000000000C8
:1018200000000000000000000102030401020304A4
:041830000607080996
:040000050800018965
:00000001FF
